:100000000C94D2130C9403140C9403140C94031446
:100010000C9403140C9403140C9403140C94031404
:100020000C9403140C9403140C9403140C940314F4
:100030000C9403140C9403140C9403140C940314E4
:100040000C9403140C94A8570C9403140C940314EC
:100050000C9403140C9403140C9411D40C942F9846
:100060000C9403140C94DB400C9403140C940314B0
:100070000C9403140C9403140C9403140C940314A4
:100080000C9403140C9403140C9403140C94031494
:100090000C9403140C9403140C9403140C94031484
:1000A0000C9403140C9403140C9403140C94031474
:1000B0000C9403140C9403140C9403140C94031464
:1000C0000C9403140C9403140C9403140C94031454
:1000D0000C9403140C9403140C9403140C94031444
:1000E0000C9403146B966E965D9661966796A59632
:1000F000729676967C96809684968A968E9692963E
:10010000A59698969C96A0964B97509755975F9773
:100110006997E29773977B9783978D979797A197A6
:10012000B097BA97E297C497CE97D89775D485D4ED
:10013000A4D4B4D4CFD4D4D4D7D4DCD4DFD4E4D4AE
:10014000E7D4ECD4F6D4084AD73B3BCE016E84BC4E
:10015000BFFDC12F3D6C74319ABD56833DDA3D0021
:10016000C77F11BED9E4BB4C3E916BAAAABE00006A
:1001700000803F05A84CCDB2D44EB93836A9020C48
:1001800050B9918688083CA6AAAA2ABE0000008021
:100190003F004E414E494E495459494E46CDCCCC74
:1001A0003D0AD7233C17B7D13877CC2B329595E64B
:1001B000241FB14F0A000020410000C84200401C2B
:1001C0004620BCBE4CCA1B0E5AAEC59D74434F4D53
:1001D0004D554E49434154494F4E00445259525592
:1001E0004E004552524F525300494E464F00454330
:1001F000484F0047322F473320626164207061729C
:10020000616D65746572730A00536C6565702E2E9E
:100210002E00000000000000000000008743206C5A
:100220006576656C5F6265645F76616C75653A00E2
:1002300020453A00205A3A0020593A00583A0047DF
:1002400033300047323800473238004732390047F0
:100250003238004D383838004732380047323900DC
:1002600047323800473239206E6577205A5F6F6613
:10027000667365743A0028422961636B0028462939
:10028000726F6E74002852296967687400284C29BF
:100290006566740052756E6E696E6720696E2044E3
:1002A00052592D52554E206D6F64650A0047323900
:1002B000204175746F20426564204C6576656C69D9
:1002C0006E670A003F2856296572626F7365204C7D
:1002D0006576656C20697320696D706C61757369F2
:1002E000626C652028302D34292E0A0047333020D7
:1002F0006E6577205A5F6F66667365743A00506C5E
:100300006561736520736574205A5F6F66667365F7
:10031000743A00205A5F4D41585F504F533A2000C5
:10032000206C6576656C5F6265645F763A200020BC
:100330005A3A200020593A200042656420583A2059
:100340000047323800416E796375626963207265D7
:100350006164792E00526573756D696E67207072E5
:10036000696E74005761697420666F7220757365D9
:10037000722E2E2E004E6F206D6F76652E00456E0C
:10038000642066696C65206C6973740A0042656755
:10039000696E2066696C65206C6973740A00534449
:1003A000207072696E74696E6720627974652000CE
:1003B0004E6F74205344207072696E74696E670AC0
:1003C0000046696C652064656C657465643A004438
:1003D000656C6574696F6E206661696C65642C205C
:1003E00046696C653A20006F70656E206661696CC5
:1003F00065642C2046696C653A20002569730025E8
:10040000696D20256973002569682025696D20259F
:10041000697300256964202569682025696D202598
:10042000697300256979202569642025696820257C
:10043000696D20256973005072696E742074696D4E
:10044000653A200050726F7465637465642050696A
:100450006E0A00506C6561736520736574205A5F85
:100460006F66667365743A0048656174696E672EDD
:100470002E2E00416E796375626963207265616436
:10048000792E00EE01E901E201DB01CD016F666624
:100490000044454255473A004B494C4C45442E20B8
:1004A000006F6B004649524D574152455F4E414DDA
:1004B000453A4D61726C696E20312E312E30416E9D
:1004C00079637562696320534F555243455F434FCB
:1004D00044455F55524C3A2050524F544F434F4C75
:1004E0005F56455253494F4E3A312E30204D4143CD
:1004F00048494E455F545950453A416E796375629B
:1005000069632045585452554445525F434F554EF8
:10051000543A3120555549443A6365646532613235
:10052000662D343161322D343734382D3962313211
:100530002D6335356336326633363766660A007AA0
:100540005F6D61783A20007A5F6D696E3A200079BC
:100550005F6D61783A2000785F6D61783A200052D3
:1005600065706F7274696E6720656E6473746F7006
:10057000207374617475730A004D31343520533C17
:10058000696E6465783E206F7574206F66207261B5
:100590006E67652028302D31290A003A20007A5FE5
:1005A0006D61783A20007A5F6D696E3A20005A20BA
:1005B0004F6666736574004E6F2063617365206CCF
:1005C000696768740A0041637469766520457874C8
:1005D00072756465723A2000556E6B6E6F776E208F
:1005E000636F6D6D616E643A2022004E6F204C691E
:1005F0006E65204E756D6265722077697468206340
:100600006865636B73756D2C204C617374204C6945
:100610006E653A20004B494C4C45442E2000535403
:100620004F505045442E20005072696E7465722000
:1006300073746F707065642064756520746F2065D5
:1006400072726F72732E2046697820746865206517
:1006500072726F7220616E6420757365204D393936
:100660003920746F20726573746172742E2028545F
:10067000656D70657261747572652069732072654D
:100680007365742E205365742069742061667465E7
:10069000722072657374617274696E67290A004E04
:1006A0006F20436865636B73756D2077697468208C
:1006B0006C696E65206E756D6265722C204C61737D
:1006C00074204C696E653A2000636865636B7375CE
:1006D0006D206D69736D617463682C204C61737457
:1006E000204C696E653A20004C696E65204E756D30
:1006F000626572206973206E6F74204C6173742080
:100700004C696E65204E756D6265722B312C204CE4
:10071000617374204C696E653A20004D31313000B0
:100720004D3331004D383420582059205A2045008F
:1007300053442072656164206572726F720A0044CE
:100740006F6E65207072696E74696E672066696C81
:10075000650A0020496E76616C6964206578747260
:100760007564657220000000D2420000D242000091
:1007700087430000D2C20000D2C200000000206403
:10078000667361663A2000205A3A200020593A20C8
:100790000042656420583A200050726568656174B3
:1007A00020504C4120426564005072656865617458
:1007B00020504C410050726570617265004D3530BB
:1007C000300053746F7265004D3835372046005A3B
:1007D000202D20302E31004D3835372041005A2051
:1007E0002B20302E310050726570617265204C658F
:1007F00076656C696E6700473336004D65617375C9
:100800007265205A20506F73004D61696E00473346
:10081000330053746F7265005A204F6666736574B7
:10082000005A204F6666736574004E6577205A2023
:100830004F6666736574004E6577205A204F666672
:100840007365740047333500426567696E204C65F7
:1008500076656C696E67004175746F204C657665CE
:100860006C696E67204265640050726568656174EA
:10087000204142532042656400507265686561748E
:1008800020414253005072657061726500436F6F82
:100890006C646F776E0050726568656174204142C8
:1008A00053005072656865617420504C41004D38AA
:1008B000340044697361626C65207374657070659F
:1008C0007273004D6F766520617869730047323826
:1008D000004175746F20686F6D65004D61696E0031
:1008E0004D6F76652058004D6F76652059004D6F2D
:1008F0007665205A00457874727564657200457893
:10090000747275646572004D6F7665205A004D6F84
:1009100076652059004D6F76652058004D6F7665DD
:10092000206178697300203D3D3D3D00202020205E
:100930000042696C696E656172204C6576656C6910
:100940006E6720477269643A0A200020706F7369ED
:1009500074696F6E206F7574206F662072616E67A8
:10096000652E0A003F50726F626520005374616EFD
:100970006461726420446576696174696F6E3A20BF
:10098000002052616E67653A2000204D61783A2060
:1009900000204D696E3A20004D65616E3A20004698
:1009A000696E697368656421002072616E67653ADB
:1009B0002000206D61783A2000206D696E3A200099
:1009C000207369676D613A2000206D65616E3A2081
:1009D000003A207A3A2000206F662000205A00203A
:1009E0005900205800476F696E6720746F3A002CD9
:1009F000200050756C6C696E6720706F696E742092
:100A0000746F77617264732063656E7465723A0007
:100A1000436C6F636B776973650A00436F756E741F
:100A200065722D0020446972656374696F6E3A20A7
:100A300000202020616E676C653A2000537461725B
:100A400074696E67207261646975733A2000506F33
:100A5000736974696F6E696E67207468652070725F
:100A60006F62652E2E2E0A003F4E756D62657220F4
:100A70006F66206C65677320696E206D6F76656D9B
:100A8000656E74206E6F7420706C61757369626C32
:100A9000652028302D3135292E0A003F2028582C7A
:100AA0005929206C6F636174696F6E206F75747360
:100AB000696465206F662070726F626561626C6543
:100AC000207261646975732E0A003F53616D706C0A
:100AD000652073697A65206E6F7420706C61757320
:100AE00069626C652028342D3530292E0A004D347A
:100AF00038205A2D50726F6265205265706561749E
:100B00006162696C69747920546573740A003F5698
:100B10006572626F7365204C6576656C206E6F74CC
:100B200020706C61757369626C652028302D3429E2
:100B30002E0A002042403A0020403A00202F002098
:100B4000423A00202F0020543A0048656174696ED3
:100B50006720646F6E652E003F0A0020573A0048F8
:100B6000656174696E672E2E2E00416E7963756221
:100B700069632072656164792E0024F4D43050C317
:100B80008E20C2A24017828B7011127A910D816C57
:100B9000D90AA861E108C7586607615143061E4B90
:100BA0005D05C145A7041A411104093D9803713937
:100BB00031034036DB0265339102D4305402802E7B
:100BC0001D02632CEE01752AC501B028A001102773
:100BD00081018F2564012B244B01E0223401AC21DB
:100BE0001F018D200D01801FFC00841EED00971D4C
:100BF000DF00B81CD200E61BC600201BBC00641A34
:100C0000B200B219A8000A19A0006A189900D117F9
:100C1000910040178B00B516840031167E00B31585
:100C200079003A157300C7146F0058146A00EE1368
:100C300066008813630025135E00C7125B006C1208
:100C4000570015125400C111510070114F002111AD
:100C50004B00D61049008D1047004610440002108A
:100C60004200C00F4000800F3E00420F3C00060FC4
:100C70003B00CB0E3800930E37005C0E3500270E7C
:100C80003400F30D3200C10D3100900D3000600DC5
:100C90002E00320D2D00050D2C00D90C2B00AE0CB2
:100CA0002900850C29005C0C2700350C27000E0C50
:100CB0002600E80B2400C40B2400A00B23007D0BAE
:100CC00023005A0B2100390B2100180B2000F80AD1
:100CD0001F00D90A1E00BB0A1E009D0A1D00800AC3
:100CE0001D00630A1C00470A1B002C0A1B00110A86
:100CF0001A00F7091A00DD091900C4091900AB0927
:100D00001900920917007B091800630917004C09A4
:100D1000160036091600200916000A091500F50804
:100D20001500E0081400CC081400B8081400A4084A
:100D30001400900813007D0812006B081300580877
:100D4000120046081200340811002308110012088E
:100D5000110001081100F0071000E0071000D00793
:100D60001000C0071000B0070F00A1071000910786
:100D70000E0083070F0074070F0065070E0057076A
:100D80000E0049070E003B070D002E070E0020073E
:100D90000D0013070D0006070D00F9060C00ED0607
:100DA0000D00E0060C00D4060C00C8060C00BC06C2
:100DB0000C00B0060C00A4060B0099060C008D0672
:100DC0000B0082060B0077060B006C060B00610619
:100DD0000A0057060B004C060A0042060A003806B5
:100DE0000A002E060A0024060A001A060A00100647
:100DF000090007060A00FD050900F4050900EB05D6
:100E00000900E2050900D9050900D0050900C70558
:100E10000900BE050900B5050800AD050800A505D7
:100E200009009C050800940508008C05080084054D
:100E300008007C050800740508006C0507006505BE
:100E400008005D050700560508004E050700470528
:100E500007004005080038050700310507002A058E
:100E60000700230507001C050600160507000F05EF
:100E700007000805060002050700FB040600F5044C
:100E80000700EE040600E8040600E2040700DB04A5
:100E90000600D5040600CF040600C9040600C304FA
:100EA0000600BD040600B7040600B1040500AC044A
:100EB0000600A6040600A00405009B040600950495
:100EC0000500900406008A040500850405008004DE
:100ED00006007A04050075040500700405006B0423
:100EE000050066040500610405005C040500570464
:100EF0000500520405004D040500480405004304A4
:100F000005003E0404003A040500350405003004E1
:100F100004002C04050027040400230405001E041B
:100F200004001A04040016040500110404000D0452
:100F30000400090405000404040000040400FC0388
:100F40000400F8030400F4030400F0030400EC03BD
:100F50000400E8030400E4030400E0030400DC03ED
:100F60000400D8030400D4030400D0030400CC031D
:100F70000400C8030300C503030024F404D9201BA4
:100F8000C40C5C0E9804C4095F0265077101F40586
:100F9000F900FB04B30048048700C103690058034B
:100FA000550003034500BE023A008402310053029B
:100FB0002A002902250004022000E4011C00C801C7
:100FC0001900AF011700980114008401130071018A
:100FD00010006101100051010E0043010D003601A7
:100FE0000B002B010B0020010B00150109000C0167
:100FF000090003010800FB000800F3000800EB00F3
:101000000700E4000600DE000600D8000600D2005B
:101010000600CC000500C7000500C2000500BD00A9
:101020000400B9000400B5000400B1000400AD00E4
:101030000400A9000400A5000300A20003009F0013
:1010400004009B0003009800030095000200930039
:101050000300900003008D0002008B000300880055
:1010600002008600020084000300810002007F006D
:1010700002007D0002007B00020079000200770080
:10108000010076000200740002007200010071008D
:1010900002006F0002006D0001006C0002006A0097
:1010A00001006900020067000100660001006500A0
:1010B00001006400020062000100610001006000A4
:1010C00001005F0002005D0001005C0001005B00A8
:1010D00001005A00010059000100580001005700AA
:1010E00001005600010055000100540001005300AA
:1010F00000005300010052000100510001005000A7
:1011000001004F0001004E0000004E0001004D00A4
:1011100001004C0001004B0000004B0001004A00A0
:10112000010049000100480000004800010047009C
:101130000100460000004600010045000000450097
:101140000100440001004300000043000100420090
:101150000000420001004100000041000100400089
:1011600001003F0000003F0001003E0000003E0083
:1011700001003D0000003D0001003C0000003C007B
:1011800000003C0001003B0000003B0001003A0071
:1011900000003A0001003900000039000100380069
:1011A0000000380000003800010037000000370060
:1011B0000100360000003600000036000100350056
:1011C000000035000000350001003400000034004C
:1011D0000000340001003300000033000000330041
:1011E0000100320000003200000032000100310036
:1011F000000031000000310001003000000030002C
:101200000000300001002F0000002F0000002F0020
:1012100000002F0001002E0000002E0000002E0014
:1012200001002D0000002D0000002D0000002D0009
:1012300001002C0000002C0000002C0000002C00FD
:1012400001002B0000002B0000002B0000002B00F1
:1012500001002A0000002A0000002A0000002A00E5
:1012600001002900000029000000290000002900D9
:1012700000002900010028000000280000002800CC
:1012800000002800000028000100270000002700BF
:1012900000002700000027000000270001002600B2
:1012A00000002600000026000000260000002600A6
:1012B0000100250000002500000025000000250099
:1012C000000025000000250001002400000024008B
:1012D000000024000000240000002400010023007E
:1012E0000000230000002300000023000000230072
:1012F0000000230000002300010022000000220063
:101300000000220000002200000022000000220055
:101310000100210000002100000021000000210048
:101320000000210000002100000021000100200039
:10133000000020000000200000002000000020002D
:1013400000002000000020000000200001001F001D
:1013500000001F0000001F0000001F0000001F0011
:1013600000001F0000001F0001001E0000001E0002
:1013700000001E0000001E0000004D3834205820E0
:1013800059205A204500205A3A0020593A0020435B
:101390006F756E7420583A200028290A0053746F24
:1013A0007077617463683A3A006265640A002C20C1
:1013B00073797374656D2073746F70706564212028
:1013C0004865617465725F49443A200048656174FC
:1013D000696E67206661696C65640048656174695F
:1013E0006E67206661696C65640048656174696E4A
:1013F00067206661696C65640048656174696E6741
:10140000206661696C65640043616E6E6F7420656F
:101410006E746572207375626469723A2000052EDD
:101420002E004D61696E00436172642072656D6FBC
:10143000766564004361726420696E7365727465D9
:1014400064004D6F766520302E316D6D004D6F76E6
:101450006520316D6D004D6F76652031306D6D000A
:101460005072657061726500526573746F726520A9
:101470006661696C73616665004C6F6164206D65BF
:101480006D6F72790053746F7265206D656D6F7248
:10149000790046696C616D656E74004D6F74696F9B
:1014A0006E0054656D7065726174757265004D6192
:1014B000696E005072656865617420414253206313
:1014C0006F6E66005072656865617420504C4120F3
:1014D000636F6E66005049442D44005049442D44CA
:1014E000005049442D49005049442D490050494479
:1014F0002D50005049442D50002002204661637455
:101500000020022046616374002002204D617800B3
:101510002002204D6178002002204D696E002002DB
:10152000204D696E004F6666004F6E200041757455
:101530006F74656D700046616E2073706565640040
:1015400046616E20737065656400426564004265A3
:1015500064004E6F7A7A6C65004E6F7A7A6C650023
:10156000436F6E74726F6C0053746F7265206D659B
:101570006D6F72790042656400426564004E6F7A57
:101580007A6C65004E6F7A7A6C650046616E2073E6
:10159000706565640046616E207370656564005413
:1015A000656D706572617475726500454550524F86
:1015B0004D20636865636B73756D206D69736D6134
:1015C0007463680A00206279746573290A002073C5
:1015D000746F7265642073657474696E67732072CA
:1015E0006574726965766564202800486172646379
:1015F0006F6465642044656661756C74205365741E
:1016000074696E6773204C6F616465640A00202002
:101610004D383531205A005A2D50726F6265204F77
:10162000666673657420286D6D293A0A0020204D86
:101630003230302044300A0020204D3230302044F7
:10164000002044697361626C65640A0046696C61DC
:101650006D656E742073657474696E67733A0020EB
:10166000440020490020204D3330312050005049A3
:10167000442073657474696E67733A0A00204600EB
:1016800020420020480020204D3134352053004DA9
:101690006174657269616C20686561747570207031
:1016A0006172616D65746572733A0A0020430020AF
:1016B000420020410020530020520020204D3636A9
:1016C00035204C0044656C74612073657474696ED8
:1016D00067733A204C3D646961676F6E616C5F723D
:1016E0006F642C20523D7261646975732C20533DE8
:1016F0007365676D656E74735F7065725F73656344
:101700006F6E642C204142433D646961676F6E6176
:101710006C5F726F645F7472696D5F746F7765720E
:101720005F5B3132335D0A00205A002059002020CF
:101730004D363636205800456E6473746F702061E4
:10174000646A7573746D656E7420286D6D293A0A2C
:101750000020204D3432302053004175746F2042F8
:101760006564204C6576656C696E673A0A00205A9C
:101770000020590020204D323036205800486F6D2F
:1017800065206F666673657420286D6D290A0020D8
:101790004500205A002059002058002042002054C3
:1017A0000020204D323035205300416476616E6355
:1017B0006564207661726961626C65733A20533D9D
:1017C0004D696E20666565647261746520286D6D73
:1017D0002F73292C20543D4D696E207472617665FB
:1017E0006C20666565647261746520286D6D2F7369
:1017F000292C20423D6D696E696D756D207365679A
:101800006D656E742074696D6520286D73292C20B8
:10181000583D6D6178696D756D205859206A657203
:101820006B20286D6D2F73292C20205A3D6D617817
:10183000696D756D205A206A65726B20286D6D2F59
:1018400073292C2020453D6D6178696D756D2045AB
:10185000206A65726B20286D6D2F73290A00205451
:101860000020520020204D3230342050004163636C
:10187000656C65726174696F6E733A20503D707269
:10188000696E74696E672C20523D72657472616373
:101890007420616E6420543D74726176656C0A0038
:1018A000204500205A0020590020204D32303120A0
:1018B00058004D6178696D756D20416363656C6595
:1018C000726174696F6E20286D6D2F7332293A0A28
:1018D00000204500205A0020590020204D3230338E
:1018E0002058004D6178696D756D2066656564727C
:1018F0006174657320286D6D2F73293A0A002045A5
:1019000000205A0020590020204D39322058005321
:10191000746570732070657220756E69743A0A0080
:101920004572726F722077726974696E6720746F86
:1019300020454550524F4D210A002062797465734D
:10194000290A0053657474696E67732053746F724B
:101950006564202800000020002300260029002CB8
:10196000002F0032000001000003010601090105FB
:10197000050505070508080808020202020A0A0808
:10198000080404040401010101010101010303032E
:101990000303030303040707070C0C0C0C0C0C0CCB
:1019A0000C0202020206060606060606060B0B0BD2
:1019B0000B0B0B0B0B01021020200808102040100D
:1019C0002040800201020108040201010204081003
:1019D0002040808040201008040201800402018021
:1019E000402010080402010804020101020408104A
:1019F000204080010204081020408000000A0B02F1
:101A0000090C0D0E0807030401000000000000008F
:101A100000000000000000000000000000000000C6
:101A20000000000000000012111000000000000083
:101A300000000000000000000000000000000000A6
:101A4000004B494C4C45442E2000202D20496E76F9
:101A5000616C6964206578747275646572206E7556
:101A60006D62657220210A00414E59435542494337
:101A7000204B4F5353454C0057656C636F6D6500A9
:101A800057656C636F6D650020312E312E3000205C
:101A900020506C616E6E6572427566666572427941
:101AA0007465733A20002046726565204D656D6F40
:101AB00072793A2000436F6D70696C65643A204F0B
:101AC000637420323620323031380A00207C2041C5
:101AD0007574686F723A2028414E59435542494304
:101AE00020504C55532C20323031372F392F31387C
:101AF000290A00323031362D31322D303620313244
:101B00003A303000204C6173742055706461746504
:101B1000643A2000312E312E300A004D61726C691A
:101B20006E0020536F66747761726520526573652D
:101B3000740A00205761746368646F67205265738C
:101B400065740A002042726F776E206F75742052A0
:101B5000657365740A002045787465726E616C2047
:101B600052657365740A00506F77657255700A008C
:101B700073746172740A004731205A2B3230004767
:101B80003931006572726F722077726974696E679D
:101B900020746F2066696C650A00456E6473746F0B
:101BA0007073202563202563202563202563002092
:101BB0005A3A0020593A0020583A00656E6473740E
:101BC0006F7073206869743A2000446F6E652073EB
:101BD0006176696E672066696C652E0A004D323940
:101BE0000025753A2530327500253032753A25309A
:101BF0003275002D2D2D005344005A005900580015
:101C00000120000120007061757365004E6F205344
:101C1000442063617264005072696E742066726F52
:101C20006D2053440053746F70207072696E74009D
:101C3000526573756D65207072696E7400506175C0
:101C40007365207072696E7400436F6E74726F6C8E
:101C5000004175746F204C6576656C696E67204233
:101C6000656400507265706172650054756E650040
:101C7000496E666F2073637265656E00466C6F77A0
:101C800000466C6F770046616E2073706565640076
:101C900046616E207370656564004265640042654C
:101CA00064004E6F7A7A6C65004E6F7A7A6C6500CC
:101CB0005370656564005370656564004D61696EBD
:101CC0000020746F6F206C6F6E672065787472757A
:101CD00073696F6E2070726576656E7465640A0054
:101CE00020636F6C6420657874727573696F6E2001
:101CF00070726576656E7465640A004B494C4C459C
:101D0000442E20004B494C4C45442E2000506C651D
:101D1000617365207265736574005052494E544575
:101D2000522048414C544544005072696E746572AB
:101D30002068616C7465642E206B696C6C282920A6
:101D400063616C6C6564210A00656E71756575650B
:101D5000696E6720220000002100240027002A006D
:101D60002D003000330001010000040107010A01C9
:101D700000002200250028002B002E003100340036
:101D800002010000050108010B01457374657073C1
:101D90002F6D6D004573746570732F6D6D005A73F0
:101DA000746570732F6D6D005A73746570732F6D49
:101DB0006D005973746570732F6D6D005973746580
:101DC00070732F6D6D005873746570732F6D6D0097
:101DD0005873746570732F6D6D00412D7472617648
:101DE000656C00412D74726176656C00412D7265E1
:101DF000747261637400412D726574726163740062
:101E0000416D6178204500416D6178204500416D4C
:101E10006178205A00416D6178205A00416D6178E7
:101E2000205900416D6178205900416D617820583A
:101E300000416D61782058005654726176206D69BA
:101E40006E005654726176206D696E00566D696E33
:101E500000566D696E00566D6178204500566D61C3
:101E600078204500566D6178205A00566D617820C3
:101E70005A00566D6178205900566D6178205900DE
:101E8000566D6178205800566D617820580056656F
:101E90002D6A65726B0056652D6A65726B00567A05
:101EA0002D6A65726B00567A2D6A65726B005679E1
:101EB0002D6A65726B0056792D6A65726B005678D3
:101EC0002D6A65726B0056782D6A65726B004163EE
:101ED00063656C00416363656C005A204F666673EE
:101EE0006574005A204F666673657400436F6E74A4
:101EF000726F6C0046696C2E204469612E00466941
:101F00006C2E204469612E004F6666004F6E2000E3
:101F10004520696E206D6D3300436F6E74726F6C77
:101F2000005761726E696E673A20486F6D696E671F
:101F30002042756D702044697669736F72203C2071
:101F4000310A000000A0400000A0400000A04000B6
:101F5000005243000052430000874301010100008A
:101F60002110422063308440A550C660E77008818C
:101F700029914AA16BB18CC1ADD1CEE1EFF1311203
:101F8000100273325222B5529442F772D6623993DC
:101F900018837BB35AA3BDD39CC3FFF3DEE3622453
:101FA000433420040114E664C774A44485546AA52C
:101FB0004BB528850995EEE5CFF5ACC58DD55336E3
:101FC000722611163006D776F6669556B4465BB77C
:101FD0007AA719973887DFF7FEE79DD7BCC7C448B3
:101FE000E5588668A7784008611802282338CCC9CC
:101FF000EDD98EE9AFF9488969990AA92BB9F55A43
:10200000D44AB77A966A711A500A333A122AFDDB1B
:10201000DCCBBFFB9EEB799B588B3BBB1AABA66C12
:10202000877CE44CC55C222C033C600C411CAEED6B
:102030008FFDECCDCDDD2AAD0BBD688D499D977E22
:10204000B66ED55EF44E133E322E511E700E9FFFBB
:10205000BEEFDDDFFCCF1BBF3AAF599F788F889171
:10206000A981CAB1EBA10CD12DC14EF16FE1801055
:10207000A100C230E3200450254046706760B98358
:102080009893FBA3DAB33DC31CD37FE35EF3B102A5
:102090009012F322D2323542145277625672EAB568
:1020A000CBA5A89589856EF54FE52CD50DC5E234F5
:1020B000C324A01481046674476424540544DBA738
:1020C000FAB79987B8975FE77EF71DC73CD7D32645
:1020D000F2369106B01657667676154634564CD9C8
:1020E0006DC90EF92FE9C899E9898AB9ABA9445895
:1020F000654806782768C018E1088238A3287DCB98
:102100005CDB3FEB1EFBF98BD89BBBAB9ABB754AE4
:10211000545A376A167AF10AD01AB32A923A2EFD27
:102120000FED6CDD4DCDAABD8BADE89DC98D267C34
:10213000076C645C454CA23C832CE01CC10C1FEF77
:102140003EFF5DCF7CDF9BAFBABFD98FF89F176E84
:10215000367E554E745E932EB23ED10EF01E7C3C00
:102160003E5E2B3D3F2F5B5D3B2C2A225C002074A2
:102170006F6F206C6F6E6720657874727573696F0E
:102180006E2070726576656E7465640A0020636FF8
:102190006C6420657874727573696F6E20707265F7
:1021A00076656E7465640A00205A00205900580054
:1021B00020204D61783A2000205A00205900580014
:1021C00020204D696E3A20004F666600536F66749A
:1021D00020656E6473746F70733A200020643A0057
:1021E00020693A0020703A0043290A0061626C6558
:1021F0006420286D696E2074656D702000436F6CDB
:10220000642065787472756465732061726520005E
:1022100023646566696E65202044454641554C54EB
:102220005F4B64200023646566696E652020444529
:102230004641554C545F4B69200023646566696EC6
:1022400065202044454641554C545F4B702000505A
:102250004944204175746F74756E652066696E69B6
:1022600073686564212050757420746865206C6102
:102270007374204B702C204B6920616E64204B647A
:1022800020636F6E7374616E74732066726F6D205D
:1022900062656C6F7720696E746F20436F6E66693C
:1022A0006775726174696F6E2E680A005049442028
:1022B0004175746F74756E65206661696C65642123
:1022C0002074696D656F75740A005049442041752A
:1022D000746F74756E65206661696C656421205445
:1022E000656D706572617475726520746F6F2068BA
:1022F0006967680A00204B643A2000204B693A2045
:1023000000204B703A20000A20436C6173736963AC
:1023100020504944200A002054753A2000204B7573
:102320003A2000206D61783A2000206D696E3A20D5
:102330000020643A200020626961733A20004269FB
:102340006C696E6561722047726964206E6F7420DB
:1023500079657420637265617465640A004265641E
:10236000204C6576656C696E6720004661696C6516
:102370006420746F20656E61626C65204265642024
:102380004C6576656C696E670A004F6666736574A6
:1023900073206170706C696564004572723A2054F4
:1023A0006F6F206661722100546F6F20666172202A
:1023B00066726F6D207265666572656E636520700A
:1023C0006F696E740A0070012C0190012701B00141
:1023D0002201C0011D01F001180110021301300299
:1023E0000E016002090190020401C002FF00000317
:1023F000FA004003F5008003F000D003EB00200456
:10240000E6007004E100E004DC004005D700C005F0
:10241000D2004006CD00D006C8008007C3003008B7
:10242000BE00F008B900C009B400B00AAF00B00B9C
:10243000AA00D00CA500000EA000500F9B00C010F9
:1024400096005012910000148C00C0158700B01740
:102450008200B0197D00D01B7800001E7300402060
:102460006E0090226900F024640040275F009029EC
:102470005A00E02B5500102E500020304B00103237
:102480004600E033410090353C001037370070388B
:102490003200A0392D00B03A2800A03B2300603C58
:1024A0001E00103D1900903D1400103E0F00703EBC
:1024B0000A00C03E0500003F000073746F700020EA
:1024C0006669727374005A0059005800486F6D6550
:1024D00020002066697273740A005A00590058007F
:1024E000486F6D6520006563686F3A0072657365BB
:1024F00074006175746F25692E67004D3234004D8C
:1025000032332025730057726974696E6720746FC7
:102510002066696C653A20006F70656E206661699F
:102520006C65642C2046696C653A20006F70656E9E
:10253000206661696C65642C2046696C653A2000F0
:1025400046696C652073656C65637465640A002078
:1025500053697A653A200046696C65206F70656E34
:1025600065643A20006F70656E206661696C656411
:102570002C2046696C653A20002066696C653A201B
:10258000004E6F7720002220706F73002220706150
:1025900072656E743A2200535542524F5554494E5B
:1025A000452043414C4C207461726765743A2200A7
:1025B0004B494C4C45442E2000747279696E67205B
:1025C000746F2063616C6C207375622D67636F6438
:1025D000652066696C6573207769746820746F6F15
:1025E000206D616E79206C6576656C732E204D418F
:1025F00058206C6576656C2069733A004572726F7D
:10260000723A0043616E6E6F74206F70656E207356
:1026100075626469722000473930004731205A2DB5
:1026200032300073746172740053442063617264C9
:10263000206F6B0A006F70656E526F6F7420666159
:10264000696C65640A00766F6C756D652E696E69DC
:1026500074206661696C65640A00534420696E6980
:1026600074206661696C0A0042656420646F6E655F
:102670002E003F0A0020573A0042656420486561F9
:1026800074696E672E00416E796375626963204FCD
:1026900066662E0020453A00205A3A0020593A003A
:1026A000583A0053657474696E6720547261766598
:1026B0006C20416363656C65726174696F6E3A206A
:1026C0000053657474696E67205265747261637437
:1026D00020416363656C65726174696F6E3A2000B6
:1026E00053657474696E67205072696E742041631B
:1026F00063656C65726174696F6E3A20005365742E
:1027000074696E67205072696E7420616E64205423
:10271000726176656C20416363656C657261746992
:102720006F6E3A2000544845524D414C2052554E50
:102730004157415900546865726D616C2052756E45
:1027400061776179004572723A204D494E54454D8A
:1027500050004D494E54454D50207472696767656D
:10276000726564004572723A204D415854454D508F
:1027700020424544004572723A204D415854454D1F
:1027800050004D415854454D50207472696767653B
:1027900072656400526573656E643A20006F6B0069
:1027A000AAE489E411241FBECFEFD1E2DEBFCDBF82
:1027B00000E00CBF14E0A0E0B2E0E2E8F9EE01E0D6
:1027C0000BBF02C007900D92A838B107D9F725E1D9
:1027D000A8E8B4E001C01D92A53DB207E1F713E1FE
:1027E000C1EDD3E100E006C021970109802FFE0171
:1027F0000E942AF4C03DD10780E00807A9F70E9493
:102800006BDF0C94B0F40C9400002F923F924F9227
:102810005F926F927F928F929F92AF92BF92CF9270
:10282000DF92EF92FF920F931F93CF93DF93CDB779
:10283000DEB7C059D1090FB6F894DEBF0FBECDBFC9
:102840000091870E20E6029F80011124095F124F3C
:102850001093CA050093C9058091EF0A80FF18C044
:10286000E6EEF4E284917F013FEFE31AF30A882356
:1028700021F00E949D3AF701F5CFD8018D918D018D
:10288000882319F00E949D3AF8CF8AE00E949D3A71
:102890002091C9053091CA05F90180812F5F3F4F12
:1028A0008032D1F3F093CA05E093C9058E3469F004
:1028B000F090C905E090CA056AE270E08F2D9E2D68
:1028C0000E9478F40097D1F420C0818190ED980F98
:1028D0009A3010F08D3261F73296DF0131962C91EB
:1028E00020532A30D0F3CD01FC0101962081203203
:1028F000D9F3F093CA05E093C905DACFFC0131960C
:102900008291803231F08A3221F0AF2DBE2D9D911F
:1029100002C01082F5CFFD01808111968032D9F37B
:1029200080538A3010F00C948C3420E030E06AE060
:10293000629FA001639F500D11249A012053310919
:102940008191280F311D87FD3A95808180538A300F
:1029500078F38F013196D8018C918032D1F31093A6
:102960009604009395049D3411F40C94022A943536
:1029700011F40C943234973411F00C948C342E31C1
:10298000310511F40C94DC27B8F42430310538F407
:1029900080910E022230310508F449C052C02C311A
:1029A000310509F497C610F00C94C7212430310585
:1029B00009F44EC60C945C342832310509F486C6FD
:1029C000C8F42332310511F40C94F51C243231057E
:1029D00011F40C9423202132310511F00C945C3455
:1029E00081E493E090937E1480937D140E94573885
:1029F0000C945C342A35310511F40C94422958F4B6
:102A00002932310511F00C945C340E94F5C20E9409
:102A10009FCB0C945C342B35310511F40C94462972
:102A20002C35310511F40C944B290C945C3488231B
:102A300011F40C945C340E94B3510E9417910C94D1
:102A40005C34882311F40C945C3411E0223031059D
:102A500009F010E00E94B35182E50E947737882385
:102A600009F45CC10E9409386B017C014090C414D8
:102A70005090C5146090C6147090C7142091C8146B
:102A80003091C9144091CA145091CB1461962CAF67
:102A90003DAF4EAF5FAF61978091B4149091B51484
:102AA000A091B614B091B714A1968CAF9DAFAEAF04
:102AB000BFAFA1972091B8143091B9144091BA14C6
:102AC0005091BB1469962CAF3DAF4EAF5FAF699785
:102AD00020E030E0A901C701B6010E9406ED88237D
:102AE00009F49CC5A3019201A1966CAD7DAD8EAD9C
:102AF0009FADA1970E9406ED811111C061962CAD8A
:102B00003DAD4EAD5FAD619769966CAD7DAD8EAD5F
:102B10009FAD69970E9406ED882309F47FC520E0E8
:102B200030E0A901C701B6010E9406ED881F882781
:102B3000881F18130BC080E090E0A0E8BFE3A996BF
:102B40008CAF9DAFAEAFBFAFA9970AC020E030E019
:102B500040E85FEBA9962CAF3DAF4EAF5FAFA997B2
:102B6000A3019201A1966CAD7DAD8EAD9FADA197F5
:102B70000E943EF1A5966CAF7DAF8EAF9FAFA5973B
:102B800061962CAD3DAD4EAD5FAD619769966CAD74
:102B90007DAD8EAD9FAD69970E943EF16D966CAF95
:102BA0007DAF8EAF9FAF6D97A5962CAD3DAD4EAD71
:102BB0005FADA597CA01B9010E946BED4B015C01A5
:102BC0006D962CAD3DAD4EAD5FAD6D97CA01B901AF
:102BD0000E946BED9B01AC01C501B4010E943FF165
:102BE0000E94AAF365966CAF7DAF8EAF9FAF6597DD
:102BF00020E030E040E05FE30E946BED4B015C01C0
:102C0000A7019601C701B6010E946BED6B017C0123
:102C1000A5019401C501B4010E946BED9B01AC01BB
:102C2000C701B6010E943EF10E94AAF39B01AC01CC
:102C3000A9966CAD7DAD8EAD9FADA9970E946BED51
:102C40004B015C01A1962CAD3DAD4EAD5FADA197A2
:102C5000C301B2010E943FF120E030E040E05FE3B9
:102C60000E946BED6B017C016D966CAD7DAD8EAD00
:102C70009FAD6D97905865962CAD3DAD4EAD5FAD57
:102C800065970E941BF29B01AC01C501B4010E9433
:102C90006BED9B01AC01C701B6010E943FF1A3019E
:102CA00092010E943EF16B017C0169962CAD3DAD15
:102CB0004EAD5FAD699761966CAD7DAD8EAD9FAD4C
:102CC00061970E943FF120E030E040E05FE30E9426
:102CD0006BED2B013C0165962CAD3DAD4EAD5FAD6E
:102CE0006597A5966CAD7DAD8EAD9FADA5970E9405
:102CF0001BF29B01AC01C501B4010E946BED9B016D
:102D0000AC01C301B2010E943FF161962CAD3DAD13
:102D10004EAD5FAD61970E943EF114C089E40E9400
:102D20007737882329F00E9409386B017C0103C0A2
:102D3000C12CD12C76018AE40E9477378823F9F0E0
:102D40000E94093861966CAF7DAF8EAF9FAF6197DF
:102D500020E030E0A901C701B6010E9406ED811113
:102D60001EC020E030E0A90161966CAD7DAD8EAD56
:102D70009FAD61970E9406ED811111C04FC420E004
:102D800030E0A901C701B6010E9406ED882309F4CD
:102D900045C461961CAE1DAE1EAE1FAE6197A70165
:102DA0009601C701B6010E946BED4B015C01619673
:102DB0002CAD3DAD4EAD5FAD6197CA01B9010E942A
:102DC0006BED9B01AC01C501B4010E943FF10E9473
:102DD000AAF3ED966CAF7DAF8EAF9FAFED9780916C
:102DE000C4149091C514A091C614B091C7146996EB
:102DF0008CAF9DAFAEAFBFAF6997A7019601BC0185
:102E0000CD010E943FF1E1966CAF7DAF8EAF9FAFD9
:102E1000E1972091C8143091C9144091CA1450917F
:102E2000CB14A5962CAF3DAF4EAF5FAFA597619683
:102E30002CAD3DAD4EAD5FAD6197A5966CAD7DAD52
:102E40008EAD9FADA5970E943FF1E5966CAF7DAF2B
:102E50008EAF9FAFE5978091CC149091CD14A09147
:102E6000CE14B091CF14A9968CAF9DAFAEAFBFAFCB
:102E7000A9979C01AD016091BC147091BD14809123
:102E8000BE149091BF140E943EF165966CAF7DAF69
:102E90008EAF9FAF65972091C0143091C1144091BF
:102EA000C2145091C314CF57DF4F288339834A830C
:102EB0005B83C158D0408091D0149091D114A091DF
:102EC000D214B091D314AD968CAF9DAFAEAFBFAF5F
:102ED000AD97A70196015058A1962CAF3DAF4EAFCC
:102EE0005FAFA19761964CAC5DAC6EAC7FAC619767
:102EF00077FA709477F870948091B4149091B51427
:102F0000A091B614B091B7146D968CAF9DAFAEAFD3
:102F1000BFAF6D97E1962CAD3DAD4EAD5FADE19786
:102F2000BC01CD010E943EF16B017C012091B814DF
:102F30003091B9144091BA145091BB14E9962CAF5A
:102F40003DAF4EAF5FAFE997E5962CAD3DAD4EADD1
:102F50005FADE597E9966CAD7DAD8EAD9FADE99720
:102F60000E943EF14B015C01A7019601A1966CAD58
:102F70007DAD8EAD9FADA1970E946BEDC358DF4F25
:102F8000688379838A839B83CD57D040A5019401C0
:102F9000C301B2010E946BED9B01AC01C358DF4F2E
:102FA000688179818A819B81CD57D0400E943FF111
:102FB000C358DF4F688379838A839B83CD57D04082
:102FC000A5019401A1966CAD7DAD8EAD9FADA1978D
:102FD0000E946BED4B015C01A7019601C301B20198
:102FE0000E946BED9B01AC01C501B4010E943EF152
:102FF000C358DF4F288139814A815B81CD57D0404A
:103000000E94B2F16B017C0120E030E0A9010E9436
:1030100006ED87FF0AC02BED3FE049EC50E4C70105
:10302000B6010E943FF16B017C01112351F02BEDA1
:103030003FE049EC50E4C701B6010E943EF16B014C
:103040007C0120E030E0A901C701B6010E9406ED35
:1030500081112AC06D962CAD3DAD4EAD5FAD6D9723
:1030600069966CAD7DAD8EAD9FAD69970E9406ED02
:1030700081111AC0E9962CAD3DAD4EAD5FADE9971B
:10308000A5966CAD7DAD8EAD9FADA5970E9406ED6A
:1030900081110AC02BED3FE049EC50E4C701B601B5
:1030A0000E943FF16B017C01ED962CAD3DAD4EAD24
:1030B0005FADED97C701B6010E946BED9B01AC01BE
:1030C0000E946BED4B015C0165962CAD3DAD4EADA4
:1030D0005FAD6597CA01B9010E946BED9B01AC0120
:1030E000C501B4010E943FF10E94AAF34B015C01AB
:1030F0002FE632E143E85AE30E9406ED87FD8AC2DB
:10310000C501B4010E94B4F20E9488F26B967FAFB1
:103110006EAF6B97672B31F481E090E06B969FAFB9
:103120008EAF6B976B96AEADBFAD6B97BD0180E078
:1031300090E00E940AED4B015C019B01AC01C701CC
:10314000B6010E941BF269966CAF7DAF8EAF9FAF48
:103150006997A501940165966CAD7DAD8EAD9FAD6F
:1031600065970E941BF2CB57DF4F688379838A8370
:103170009B83C558D040AD962CAD3DAD4EAD5FADF7
:10318000AD97CF57DF4F688179818A819B81C15884
:10319000D0400E943EF1A50194010E941BF2C75746
:1031A000DF4F688379838A839B83C958D0406996AF
:1031B0002CAD3DAD4EAD5FAD6997CA01B9010E941E
:1031C0006BED20E030E040E05FE30E946BED9B019F
:1031D000AC0160E070E080E89FE30E943EF1E99678
:1031E0006CAF7DAF8EAF9FAFE997A9962CAD3DAD8B
:1031F0004EAD5FADA99729873A874B875C87AD961F
:103200008CAD9DADAEADBFADAD978D879E87AF87C1
:10321000B88B6091AA027091AB02072E000C880B4C
:10322000990B0E940CED2091AC023091AD024091BF
:10323000AE025091AF020E946BED2AE037ED43E2FF
:103240005CE30E946BEDED966CAF7DAF8EAF9FAFF0
:10325000ED970E9423989B01AC0128533F4F4F4F9D
:103260005F4FCF57DF4F288339834A835B83C15831
:10327000D0406E963FAD6E9762963FAF62976F9665
:103280004FAD6F97A2964FAFA297A0962FACA09785
:10329000A1963FACA19781E090E0AB969FAF8EAF37
:1032A000AB97A6961FAEA697AB96EEADFFADAB97CC
:1032B0006B962EAD3FAD6B97E217F30709F46AC129
:1032C0000E94F7530E942398DC01CB01CF57DF4FB8
:1032D000288139814A815B81C158D040821B930B80
:1032E000A40BB50BB7FD12C00E9423989B01AC0143
:1032F00028533F4F4F4F5F4FCF57DF4F28833983BE
:103300004A835B83C158D0400E94BA89A6963FADDC
:10331000A6973F5FA6963FAFA69739310CF04EC0F7
:10332000E9962CAD3DAD4EAD5FADE997C301B2015D
:103330000E946BED6B017C0169962CAD3DAD4EADED
:103340005FAD699762966FAD6297A2967FADA297C7
:10335000C1010E946BEDA70196010E943FF17B0124
:103360008C01E9962CAD3DAD4EAD5FADE99762960F
:103370006FAD6297A2967FADA297C1010E946BEDDF
:103380004B015C0169962CAD3DAD4EAD5FAD6997CB
:10339000C301B2010E946BED9B01AC01C501B401F8
:1033A0000E943EF162966FAF6297A2967FAFA2979E
:1033B0001C01C701D8012C013D0161C0AB964EAD87
:1033C0005FADAB97BA0180E090E00E940AED69968C
:1033D0002CAD3DAD4EAD5FAD69970E946BED4B01DD
:1033E0005C010E9418F26B017C01C501B4010E94CE
:1033F000A0F34B015C01A7019601A1966CAD7DADD8
:103400008EAD9FADA1970E946BED2B013C01A501F4
:10341000940161966CAD7DAD8EAD9FAD61970E94BC
:103420006BED9B01AC01C301B2010E943FF16296BA
:103430006FAF6297A2967FAFA2971C01A50194017E
:10344000A1966CAD7DAD8EAD9FADA1970E946BED49
:103450004B015C01A701960161966CAD7DAD8EAD0F
:103460009FAD61970E946BED9B01AC01C501B4015A
:103470000E943EF12B013C01A6961FAEA6976296D4
:103480002FAD6297A2963FADA297A101E1966CADD8
:103490007DAD8EAD9FADE1970E943FF16B017C0148
:1034A00069837A838B839C83A3019201E5966CAD3B
:1034B0007DAD8EAD9FADE5970E943FF1C358DF4FC4
:1034C000688379838A839B83CD57D0406D837E83C5
:1034D0008F83988729853A854B855C85CB57DF4F4D
:1034E000688179818A819B81C558D0400E943FF1D3
:1034F0004B015C0169877A878B879C87C757DF4FB1
:10350000288139814A815B81C958D0406D857E858B
:103510008F8598890E943FF16D877E878F87988B72
:103520001091B314C8A2D9A2EAA2FBA2C358DF4FDC
:1035300088819981AA81BB81CD57D0408CA39DA35E
:10354000AEA3BFA388A699A6AAA6BBA6CE018096C5
:103550000E94143ACE0180960E94AD8FC12EED9646
:10356000ECACFDAC0EAD1FADED979E01235F3F4F60
:103570004CED54E168ED74E184ED94E10E9430ABD0
:10358000AB96AEADBFADAB971196AB96BFAFAEAF3E
:10359000AB978ACEC090B3148091B4149091B514B7
:1035A000A091B614B091B71488A399A3AAA3BBA302
:1035B0008091B8149091B914A091BA14B091BB1431
:1035C0008CA39DA3AEA3BFA38091BC149091BD1406
:1035D000A091BE14B091BF1488A799A7AAA7BBA7B2
:1035E000CE0180960E94143ACE0180960E94AD8F43
:1035F000ED96ECACFDAC0EAD1FADED9720EC34E1DB
:103600004CED54E168ED74E184ED94E10E9430AB3F
:103610000E946D370E94583A0C945C34ECEFF5E24E
:1036200084918F010F5F1F4F882321F00E949D3AE4
:10363000F801F6CFE3EFF1E084918F010F5F1F4FA8
:10364000882311F40C945C340E949D3AF801F4CF65
:1036500080E50E947737882329F00E94FE376B01AE
:103660007C0103C0C12CD12C760183E50E94773701
:10367000882321F00E9432386B017C010E9464573C
:103680000E94583A8091960E9091970EA091980EB4
:10369000B091990EC80ED91EEA1EFB1E80916202DF
:1036A000811105C060E089E092E00E94C59C0E9403
:1036B0002398DC01CB018C199D09AE09BF09B7FD28
:1036C00002C00C945C340E94BA89F1CF0E94228718
:1036D0000C945C340E94645780E00E9433358091E2
:1036E000AC029091AD02A091AE02B091AF02809376
:1036F0008A0490938B04A0938C04B0938D048091E2
:10370000AA029091AB02909389048093880484E686
:1037100090E09093AB028093AA020E94583A81E015
:103720008093330280E1E4ECF4E1DF011D928A959D
:10373000E9F70E94BC3880E090E0ACE8B3E4809305
:10374000CC149093CD14A093CE14B093CF14809347
:10375000C8149093C914A093CA14B093CB14809347
:10376000C4149093C514A093C614B093C71440E03A
:1037700050E060E772E44093AC025093AD02609376
:10378000AE027093AF02C090B31423968CAF9DAF7E
:10379000AEAFBFAF239727968CAF9DAFAEAFBFAF95
:1037A00027972B968CAF9DAFAEAFBFAF2B977A010B
:1037B0008B0120ED34E1AE01495B5F4FBE016D5BD3
:1037C0007F4FCE01CF960E9430AB0E94645710927B
:1037D000060D80E090E00E94C3A881E090E00E9486
:1037E000C3A882E090E00E94C3A86CE4862E6FE03C
:1037F000962E72EEA72E7CE0B72EE2E1EE2EE2E0EE
:10380000FE2EF7EA6F2EF4E17F2EABE9CA2EA4E17B
:10381000DA2EB4EC4B2EB4E15B2E00E010E0F401A4
:1038200021E021934F01D5012D935D011601F60191
:1038300011921192119211926F01C8010E94FF38EA
:10384000C7010E94F938D3012D913D914D915D91B1
:103850003D010E943FF1F10120813181428153817C
:103860000E943FF1D2016D937D938D939D932D0125
:103870000F5F1F4FB4E0EB0EF11C0330110579F61A
:103880000E94BA388091C90C809333028091C80598
:10389000882369F01092C80519821A821B821C8243
:1038A000BE016F5F7F4F80E092E00E94AB360E94C6
:1038B000633A8091790B0E943335ECE3F2E0849116
:1038C0008F010F5F1F4F882321F00E949D3AF8015E
:1038D000F6CF6091C4147091C5148091C614909174
:1038E000C71442E00E94933EE8E3F2E084918F0126
:1038F0000F5F1F4F882321F00E949D3AF801F6CFF9
:103900006091C8147091C9148091CA149091CB141D
:1039100042E00E94933EE4E3F2E084918F010F5F66
:103920001F4F882321F00E949D3AF801F6CF609145
:10393000CC147091CD148091CE149091CF1442E0AC
:103940000E94933EE0E3F2E084918F010F5F1F4FEE
:10395000882321F00E949D3AF801F6CF6091D0149F
:103960007091D1148091D2149091D31442E00E94AE
:10397000933E80919B04811113C08091CC1490914F
:10398000CD14A091CE14B091CF148093970490934E
:103990009804A0939904B0939A0481E080939B04C7
:1039A000C0909704D0909804E0909904F0909A0405
:1039B000C092C305D092C405E092C505F092C60539
:1039C000EEE1F2E084918F010F5F1F4F882321F019
:1039D0000E949D3AF801F6CF42E0C701B6010E946D
:1039E000933E0E94DF560C945C348FE492E09093F7
:1039F0007E1480937D140E9457388BE492E090935C
:103A00007E1480937D140E94573880915B0581114C
:103A100013C08091920B9091930BA091940BB09155
:103A2000950B8093570590935805A0935905B09333
:103A30005A0581E080935B052AE939E949E95EE3AB
:103A400060915705709158058091590590915A05DC
:103A50000E943FF160937A0B70937B0B80937C0BF9
:103A600090937D0B60937E0B70937F0B8093800B04
:103A70009093810B80914F05811113C08091760C3A
:103A80009091770CA091780CB091790C80934B05B4
:103A900090934C05A0934D05B0934E0581E0809323
:103AA0004F052AE939E949E95EE360914B057091D8
:103AB0004C0580914D0590914E050E943FF1609319
:103AC0009A0C70939B0C80939C0C90939D0C80910E
:103AD0004305811113C080917A0C90917B0CA091C9
:103AE0007C0CB0917D0C80933F0590934005A09392
:103AF0004105B093420581E0809343052AE939E905
:103B000049E95EE360913F05709140058091410570
:103B1000909142050E943FF160939E0C70939F0C20
:103B20008093A00C9093A10C80913705811113C054
:103B300080917E0C90917F0CA091800CB091810CB3
:103B40008093330590933405A0933505B0933605E3
:103B500081E0809337052AE939E949E95EE360911C
:103B600033057091340580913505909136050E949A
:103B70003FF16093A20C7093A30C8093A40C9093DC
:103B8000A50C80912B05811113C08091820C90911E
:103B9000830CA091840CB091850C809327059093A1
:103BA0002805A0932905B0932A0581E080932B0571
:103BB0002AE939E949E95EE3609127057091280512
:103BC0008091290590912A050E943FF16093A60CEF
:103BD0007093A70C8093A80C9093A90C80911F055B
:103BE000811113C080918E0C90918F0CA091900C3C
:103BF000B091910C80931B0590931C05A0931D051B
:103C0000B0931E0581E080931F052AE939E949E94F
:103C10005EE360911B0570911C0580911D059091DC
:103C20001E050E943FF16093B20C7093B30C809319
:103C3000B40C9093B50C80911305811113C0809141
:103C4000920C9091930CA091940CB091950C809350
:103C50000F0590931005A0931105B093120581E014
:103C6000809313052AE939E949E95EE360910F057C
:103C70007091100580911105909112050E943FF1FD
:103C80006093B60C7093B70C8093B80C9093B90CFA
:103C900080910705811113C08091720C9091730C73
:103CA000A091740CB091750C80930305909304055A
:103CB000A0930505B093060581E080930705C090A9
:103CC0000305D0900405E0900505F09006052AE96B
:103CD00039E949E95EE3C701B6010E943FF160930B
:103CE000960C7093970C8093980C9093990C2AE9FA
:103CF00039E949E15FE3C701B6010E943FF16093F2
:103D0000BA0C7093BB0C8093BC0C9093BD0C87E4F1
:103D100092E090937E1480937D140E94573883E440
:103D200092E090937E1480937D140E9457388FE325
:103D300092E090937E1480937D140E945738809176
:103D4000FB04811113C08091920B9091930BA09171
:103D5000940BB091950B8093F7049093F804A09383
:103D6000F904B093FA0481E08093FB042AE939E96D
:103D700049E95EE36091F7047091F8048091F904D9
:103D80009091FA040E943FF160937A0B70937B0B41
:103D900080937C0B90937D0B60937E0B70937F0BD5
:103DA0008093800B9093810B8091EF04811113C05D
:103DB0008091760C9091770CA091780CB091790C51
:103DC0008093EB049093EC04A093ED04B093EE0485
:103DD00081E08093EF042AE939E949E95EE36091E3
:103DE000EB047091EC048091ED049091EE040E943C
:103DF0003FF160939A0C70939B0C80939C0C909372
:103E00009D0C8091E304811113C080917A0C9091F4
:103E10007B0CA0917C0CB0917D0C8093DF0490937F
:103E2000E004A093E104B093E20481E08093E30412
:103E30002AE939E949E95EE36091DF047091E00421
:103E40008091E1049091E2040E943FF160939E0C06
:103E500070939F0C8093A00C9093A10C8091D70439
:103E6000811113C080917E0C90917F0CA091800CE9
:103E7000B091810C8093D3049093D404A093D50483
:103E8000B093D60481E08093D7042AE939E949E95F
:103E90005EE36091D3047091D4048091D504909135
:103EA000D6040E943FF16093A20C7093A30C809300
:103EB000A40C9093A50C8091CB04811113C0809128
:103EC000820C9091830CA091840CB091850C80930E
:103ED000C7049093C804A093C904B093CA0481E0B6
:103EE0008093CB042AE939E949E95EE36091C7048C
:103EF0007091C8048091C9049091CA040E943FF156
:103F00006093A60C7093A70C8093A80C9093A90CB7
:103F10008091BF04811113C080918E0C90918F0C01
:103F2000A091900CB091910C8093BB049093BC0431
:103F3000A093BD04B093BE0481E08093BF042AE93E
:103F400039E949E95EE36091BB047091BC0480915A
:103F5000BD049091BE040E943FF16093B20C709337
:103F6000B30C8093B40C9093B50C8091B304811181
:103F700013C08091920C9091930CA091940CB091ED
:103F8000950C8093AF049093B004A093B104B093C8
:103F9000B20481E08093B3042AE939E949E95EE398
:103FA0006091AF047091B0048091B1049091B2041B
:103FB0000E943FF16093B60C7093B70C8093B80CDD
:103FC0009093B90C8091A704811113C08091720C59
:103FD0009091730CA091740CB091750C8093A30414
:103FE0009093A404A093A504B093A60481E08093C9
:103FF000A704C090A304D090A404E090A504F0907E
:10400000A6042AE939E949E95EE3C701B6010E943D
:104010003FF16093960C7093970C8093980C90935B
:10402000990C2AE939E949E15FE3C701B6010E9429
:104030003FF16093BA0C7093BB0C8093BC0C9093CF
:10404000BD0C0C945C3480E692E090937E148093D7
:104050007D140E9457388CE592E090937E148093F3
:104060007D140E9457388091BB05811113C0809147
:10407000920B9091930BA091940BB091950B809320
:10408000B7059093B805A093B905B093BA0581E040
:104090008093BB052AE939E949E95EE36091B705F8
:1040A0007091B8058091B9059091BA050E943FF1D1
:1040B00060937A0B70937B0B80937C0B90937D0BBA
:1040C00060937E0B70937F0B8093800B9093810B9A
:1040D0008091AF05811113C08091760C9091770C7F
:1040E000A091780CB091790C8093AB059093AC05BE
:1040F000A093AD05B093AE0581E08093AF052AE9AA
:1041000039E949E95EE36091AB057091AC058091B6
:10411000AD059091AE050E943FF160939A0C7093AB
:104120009B0C80939C0C90939D0C8091A305811116
:1041300013C080917A0C90917B0CA0917C0CB09173
:104140007D0C80939F059093A005A093A105B0934B
:10415000A20581E08093A3052AE939E949E95EE3F4
:1041600060919F057091A0058091A1059091A20595
:104170000E943FF160939E0C70939F0C8093A00C63
:104180009093A10C80919705811113C080917E0CB2
:1041900090917F0CA091800CB091810C809393053D
:1041A00090939405A0939505B093960581E0809334
:1041B00097052AE939E949E95EE360919305709131
:1041C000940580919505909196050E943FF160932A
:1041D000A20C7093A30C8093A40C9093A50C8091D7
:1041E0008B05811113C08091820C9091830CA0915A
:1041F000840CB091850C8093870590938805A093DB
:104200008905B0938A0581E080938B052AE939E915
:1042100049E95EE360918705709188058091890581
:1042200090918A050E943FF16093A60C7093A70CB1
:104230008093A80C9093A90C80917F05811113C0E5
:1042400080918E0C90918F0CA091900CB091910C5C
:1042500080937B0590937C05A0937D05B0937E05AC
:1042600081E080937F052AE939E949E95EE36091BD
:104270007B0570917C0580917D0590917E050E9463
:104280003FF16093B20C7093B30C8093B40C909395
:10429000B50C80917305811113C08091920C90919F
:1042A000930CA091940CB091950C80936F05909312
:1042B0007005A0937105B093720581E0809373053A
:1042C0002AE939E949E95EE360916F05709170056B
:1042D00080917105909172050E943FF16093B60C38
:1042E0007093B70C8093B80C9093B90C80916705CC
:1042F000811113C08091720C9091730CA091740C79
:10430000B091750C8093630590936405A093650547
:10431000B093660581E080936705C0906305D090F7
:104320006405E0906505F09066052AE939E949E9F8
:104330005EE3C701B6010E943FF16093960C709353
:10434000970C8093980C9093990C2AE939E949E1EC
:104350005FE3C701B6010E943FF16093BA0C70930E
:10436000BB0C8093BC0C9093BD0C88E592E09093BD
:104370007E1480937D140E94573883E592E09093D9
:104380007E1480937D140E9457380C945C3481E035
:104390008093C8050E9485BF8111B3C486E50E9441
:1043A0007737882339F00E94F137A3969FAF8EAFFD
:1043B000A39706C0E1E0F0E0A396FFAFEEAFA397AE
:1043C000A3962EAD3FADA3972530310568F0E4EC00
:1043D000F2E084918F010F5F1F4F882309F491C48D
:1043E0000E949D3AF801F5CF84E40E9477376E96DB
:1043F0008FAF6E9785E40E947737E6968FAFE6978A
:10440000A3964EAD5FADA397452BE9F0EDEAF2E040
:1044100084918F010F5F1F4F882321F00E949D3AE6
:10442000F801F6CF6E965FAD6E97552361F0E4E923
:10443000F2E084918F010F5F1F4F882321F00E94CB
:104440009D3AF801F6CF83E50E947737882349F03B
:104450000E94093820E030E040E752E40E941BF25D
:1044600004C060E070E088EC92E460930402709312
:10447000050280930602909307028CE40E9477372E
:10448000882319F00E94093818C020E030E04CEB76
:1044900052E46091A7147091A8148091A91490918E
:1044A000AA140E943EF120919B1430919C144091DB
:1044B0009D1450919E140E943FF10E9483F22F960A
:1044C0007FAF6EAF2F9782E50E947737882319F070
:1044D0000E94093818C020E030E04CEC52E46091B2
:1044E000A7147091A8148091A9149091AA140E9405
:1044F0003FF120919B1430919C1440919D14509158
:104500009E140E943FF10E9483F28B0186E40E9478
:104510007737882319F00E94093818C020E030E06E
:104520004EEA52E46091AB147091AC148091AD14DA
:104530009091AE140E943EF120919F143091A014EE
:104540004091A1145091A2140E943FF10E9483F265
:104550001B0182E40E947737882319F00E940938F2
:1045600018C020E030E042EB52E46091AB1470914F
:10457000AC148091AD149091AE140E943FF1209143
:104580009F143091A0144091A1145091A2140E9444
:104590003FF10E9483F267967FAF6EAF67972F96C9
:1045A000AEADBFAD2F97BD01BB0F880B990B0E941D
:1045B0000CEDA9966CAF7DAF8EAF9FAFA9978090A1
:1045C000A7149090A814A090A914B090AA14C09019
:1045D0009B14D0909C14E0909D14F0909E1420E0C9
:1045E00030E042ED52E4C501B4010E943EF1A70162
:1045F00096010E943FF19B01AC01A9966CAD7DAD87
:104600008EAD9FADA9970E9406ED87FD11C0B1E068
:10461000AE96BFAFAE97C80143972F96EEADFFADF4
:104620002F97E817F90744F4AE961FAEAE9704C073
:10463000F1E0AE96FFAFAE97B801012E000C880BEB
:10464000990B0E940CED2B013C0120E030E042ED83
:1046500052E4C501B4010E943FF1A70196010E94F6
:104660003FF19B01AC01C301B2010E9465F3181632
:1046700084F021E062962FAF62972F968EAD9FADAA
:104680002F9743968017910744F462961FAE629766
:1046900004C031E062963FAF6297B101032C000C79
:1046A000880B990B0E940CEDAD966CAF7DAF8EAF71
:1046B0009FAFAD978090AB149090AC14A090AD14C8
:1046C000B090AE14C0909F14D090A014E090A114AC
:1046D000F090A21420E030E042ED52E4C501B401B4
:1046E0000E943EF1A70196010E943FF19B01AC019F
:1046F000AD966CAD7DAD8EAD9FADAD970E9406EDD4
:1047000087FD10C041E06A964FAF6A9767968EADFD
:104710009FAD679743972816390644F46A961FAEF3
:104720006A9704C051E06A965FAF6A976796AEAD2C
:10473000BFAD6797BD01BB0F880B990B0E940CEDB5
:104740002B013C0120E030E042ED52E4C501B40110
:104750000E943FF1A70196010E943FF19B01AC012D
:10476000C301B2010E9465F3FF24F394181654F0BC
:10477000C10143966796EEADFFAD67978E179F0711
:104780000CF4F12CAE96FFADAE97F11112C062960B
:104790002FAD6297222329F085E892E00E94DCDDAC
:1047A00011C06A963FAD6A9731110CC0F11013C069
:1047B0001AC08DE892E00E94DCDD62964FAD6297F0
:1047C0004111EACF6A965FAD6A97552321F08DE7D4
:1047D00092E00E94DCDDFF2009F493C286E792E0BC
:1047E0000E94DCDD8EC20E9464578091240F629685
:1047F0008FAF62971092240F6E969FAD6E979111B6
:104800000AC00E94008C88E19FE00E944AB70E9483
:10481000B9A80E94BA380E947C3A81E00E942437ED
:10482000882331F06296AFAD6297A093240F69C2DE
:104830001BAE1CAE1DAE1EAE18A219A21AA21BA260
:104840002F96EEADFFAD2F970E1B1F0B17FF02C06B
:10485000095F1F4F53E0159507955A95E1F7B80189
:10486000012E000C880B990B0E940CEDE5966CAFA5
:104870007DAF8EAF9FAFE5976796EEACFFAC6797C5
:10488000E218F308F7FE03C0F7E0EF0EF11C43E077
:10489000F594E7944A95E1F7B7010F2C000C880BCB
:1048A000990B0E940CED2B013C018AE50E947737A1
:1048B00081110E9409386091C20C7091C30C072EBF
:1048C000000C880B990B0E940CED9B01AC01E59646
:1048D0006CAD7DAD8EAD9FADE5970E9406ED81116B
:1048E00025C06091C40C7091C50C072E000C880B7C
:1048F000990B0E940CED9B01AC01C301B2010E9417
:1049000006ED811113C08091BE0C9091BF0C2F96C3
:104910002EAD3FAD2F972817390741F48091C00C79
:104920009091C10C2816390609F452C062963FAD29
:1049300062973093240F0E9466351093C30C009346
:10494000C20CF092C50CE092C40C2091A7143091D7
:10495000A8144091A9145091AA14A9966CAD7DADEC
:104960008EAD9FADA9970E943EF120919B1430918E
:104970009C1440919D1450919E140E943EF10E94FF
:1049800083F27093BF0C6093BE0C2091AB143091F6
:10499000AC144091AD145091AE14AD966CAD7DAD9C
:1049A0008EAD9FADAD970E943EF120919F14309146
:1049B000A0144091A1145091A2140E943EF10E94B3
:1049C00083F27093C10C6093C00C62961FAE629725
:1049D00041E066964FAF66972F961FAE1EAE2F979B
:1049E00051E06A965FAF6A9789E0AE968FAFAE9757
:1049F000312CDE0111962D96BFAFAEAF2D9781E021
:104A000066964FAD6697482766964FAF66972F9686
:104A10008EAD9FAD2F97092E000CAA0BBB0BED9608
:104A20008CAF9DAFAEAFBFAFED97AE962FADAE974B
:104A3000321609F4D6C0632D032C000C770B880BBB
:104A4000990B0E940CED9B01AC01E5966CAD7DAD20
:104A50008EAD9FADE5970E946BED9B01AC01A996D1
:104A60006CAD7DAD8EAD9FADA9970E943FF16B01FE
:104A70007C01ED966CAD7DAD8EAD9FADED970E9446
:104A80000CED9B01AC01C301B2010E946BED9B01D7
:104A9000AC01AD966CAD7DAD8EAD9FADAD970E9476
:104AA0003FF14B015C0120E030E0A901C701B601F4
:104AB0000E9406ED87FD05C020E030E040E05FE3A6
:104AC00003C020E030E0A901C701B6010E943FF118
:104AD0000E94B4F26B017C016BAF7CAF8DAF9EAFD7
:104AE00020E030E0A901C501B4010E9406ED87FD78
:104AF00005C020E030E040E05FE303C020E030E0AC
:104B0000A901C501B4010E943FF10E94B4F268A35B
:104B100079A38AA39BA32D96AEADBFAD2D97ECE0F4
:104B20001D92EA95E9F7C982DA82EB82FC826D83F5
:104B30007E838F839887CE0101960E94B7CC88230D
:104B400009F44AC0A3962EAD3FADA397E6964FADAC
:104B5000E697BE01605E7F4FCE01CB960E94043F78
:104B600029E0332D3203800111242F964EAD5FAD25
:104B70002F97040F151F000F111F000F111F06584C
:104B8000144F20913A0230913B0240913C025091E7
:104B90003D020E943FF1D8016D937D938D939C93CC
:104BA000139704E612E0F8018491882329F00F5F3F
:104BB0001F4F0E949D3AF7CF60913A0270913B02DD
:104BC00080913C0290913D0242E00E94933E8AE037
:104BD0000E949D3A0E94BA896A96FFAD6A973F0E7D
:104BE00024CF2F964EAD5FAD2F974F5F5F4F2F961F
:104BF0005FAF4EAF2F9749305105D1F06696BFADEC
:104C00006697B1110BC0EFEF6A96EFAF6A97FFEFAF
:104C1000AE96FFAFAE9738E0332EF1CE21E06A9624
:104C20002FAF6A9739E0AE963FAFAE97312CE7CE03
:104C300080E00E942437882331F062965FAD62974E
:104C40005093240F5EC00E94633A6E968FAD6E97AC
:104C5000811124C014E008E0E02E04E0FE2CF11ADB
:104C6000DE2CD01A21E041E0602F812F0E944BDC26
:104C700021E04FEF602F8F2D0E944BDC2FEF41E0A2
:104C80006D2D812F0E944BDC2FEF4FEF6D2D8F2D5F
:104C90000E944BDC015020F71150F8F60E94C052E0
:104CA0006E969FAD6E9791111BC081E08093790B3A
:104CB00084EC94E10E941FDA9B01AC016091CC145A
:104CC0007091CD148091CE149091CF140E943EF13A
:104CD0006093CC147093CD148093CE149093CF1422
:104CE0000E9499CF6E96AFAD6E97AA2321F062967F
:104CF0008FAD629701C081E08093240F81110E94E3
:104D0000BA3881E08093CA0C8090820B9090830B1C
:104D1000A090840BB090850B2091860B3091870B6F
:104D20004091880B5091890BC501B4010E943EF15E
:104D30009B01AC01C501B4010E943FF16B017C01F4
:104D400060937E0B70937F0B8093800B9093810B0D
:104D5000A50194010E943EF19B01AC01C701B6017F
:104D60000E943FF160937A0B70937B0B80937C0BD6
:104D700090937D0B8090920B9090930BA090940B4E
:104D8000B090950B20918E0B30918F0B4091900B32
:104D90005091910BC501B4010E943EF19B01AC0101
:104DA000C501B4010E943FF16B017C016093960B39
:104DB0007093970B8093980B9093990BA501940196
:104DC0000E943EF19B01AC01C701B6010E943FF178
:104DD00060939A0B70939B0B80939C0B90939D0B0D
:104DE000C090A20BD090A30BE090A40BF090A50B69
:104DF0002091A60B3091A70B4091A80B5091A90BC5
:104E0000C701B6010E943EF19B01AC01C701B6018A
:104E10000E943FF160939E0B70939F0B8093A00BB9
:104E20009093A10BC090BA0BD090BB0BE090BC0B41
:104E3000F090BD0B2091B60B3091B70B4091B80BA1
:104E40005091B90BC701B6010E943EF19B01AC0124
:104E5000C701B6010E943FF16093BE0B7093BF0B78
:104E60008093C00B9093C10BC0907A0CD0907B0CB8
:104E7000E0907C0CF0907D0C20917E0C30917F0CAA
:104E80004091800C5091810CC701B6010E943EF107
:104E90009B01AC01C701B6010E943FF16093760C03
:104EA0007093770C8093780C9093790C8090A20C7F
:104EB0009090A30CA090A40CB090A50C2091A60CEF
:104EC0003091A70C4091A80C5091A90CC501B401D8
:104ED0000E943EF19B01AC01C501B4010E943FF16B
:104EE0006B017C0160939E0C70939F0C8093A00CCF
:104EF0009093A10CA50194010E943EF19B01AC018D
:104F0000C701B6010E943FF160939A0C70939B0C0D
:104F100080939C0C90939D0C8090B20C9090B30C5D
:104F2000A090B40CB090B50C2091AE0C3091AF0CA9
:104F30004091B00C5091B10CC501B4010E943EF1FA
:104F40009B01AC01C501B4010E943FF16B017C01E2
:104F50006093B60C7093B70C8093B80C9093B90C17
:104F6000A50194010E943EF19B01AC01C701B6016D
:104F70000E943FF16093BA0C7093BB0C8093BC0C01
:104F80009093BD0C0E94827964EF71E080E090E024
:104F90000E94EB970E94EC7364E670E080E090E082
:104FA0000E94EB970E94AC7564E670E080E090E0B0
:104FB0000E94EB970C945C3488E50E947737882335
:104FC00019F00E9409380DC020E030E0A90160917D
:104FD000C4147091C5148091C6149091C7140E9496
:104FE0003FF16BAF7CAF8DAF9EAF89E50E94773705
:104FF000882319F00E9409380DC020E030E0A90193
:105000006091C8147091C9148091CA149091CB1406
:105010000E943FF168A379A38AA39BA30BAD1CADAB
:105020002DAD3EAD09831A832B833C836D837E8334
:105030008F83988720E030E0A9016091AF147091D0
:10504000B0148091B1149091B2140E943FF120915C
:10505000A3143091A4144091A5145091A6140E9459
:105060003FF169877A878B879C87CE0101960E94E2
:10507000B7CC882311F40C945C3483E50E94773715
:10508000882321F00E94B937482F01C041E080E019
:10509000C057DF4F4883C059D0400E9433350E942B
:1050A0007C3A21E030E0C057DF4F4881C059D04002
:1050B000BE01605E7F4FCE01CB960E94043F6B0124
:1050C0007C010E9499CFE9E3F3E084918F010F5FA7
:1050D0001F4F882321F00E949D3AF801F6CF27E167
:1050E00037EB41ED58E36BAD7CAD8DAD9EAD0E94CD
:1050F0003FF142E00E94933EE4E3F3E084918F01AC
:105100000F5F1F4F882321F00E949D3AF801F6CFD0
:1051100027E137EB41ED58E368A179A18AA19BA172
:105120000E943FF142E00E94933EEFE2F3E084915F
:105130008F010F5F1F4F882321F00E949D3AF801D5
:10514000F6CF27E137EB41ED58E3C701B6010E94E6
:105150003FF142E00E94933E8AE00E949D3AE0E2E5
:10516000F3E084918F010F5F1F4F882321F00E948D
:105170009D3AF801F6CF8090C3059090C405A090A9
:10518000C505B090C60527E137EB41ED58E3C501F1
:10519000B4010E943FF142E00E94933E8AE00E94E7
:1051A0009D3AE3E1F3E084918F010F5F1F4F882365
:1051B00021F00E949D3AF801F6CF42E063E070E0F2
:1051C00087E893E40E94933E8AE00E949D3A20E0A3
:1051D00030E047E853E4C501B4010E943EF1A70165
:1051E00096010E943FF127E137EB41ED58E30E9421
:1051F0003FF19B01AC0160E070E0CB010E943EF109
:105200006093410670934206809343069093440650
:10521000EEEFF2E084918F010F5F1F4F882321F0A2
:105220000E949D3AF801F6CF6091410670914206C6
:10523000809143069091440642E00E94933E8AE0AA
:105240000E949D3AECEEF2E084918F010F5F1F4FB8
:10525000882321F00E949D3AF801F6CF60913A022E
:1052600070913B0280913C0290913D0242E00E948D
:10527000933E8AE00E949D3A0E94633A0E9499CF31
:105280000C945C34109294040C945C3481E0809310
:1052900094040C945C3485E40E947737B82E811115
:1052A00002C00E946457F7E48F2EF3E09F2EA4EC17
:1052B000CA2EA4E1DA2EBBE9EB2EB4E1FB2E00E00E
:1052C00010E0A12CF40181914F010E9477378823CF
:1052D00009F44CC0D6012D913D914D915C91C3577D
:1052E000DF4F2883CD58D040C257DF4F3883CE5888
:1052F000D040C057DF4F4883C059D040C157DF4F1F
:105300005883CF58D0400E940938F60160837183DA
:1053100082839383C357DF4F2881CD58D040C25733
:10532000DF4F3881CE58D040C057DF4F4881C05939
:10533000D040C157DF4F5881CF58D04003301105BE
:10534000A9F00E943EF19B01AC01D7016D917D91C6
:105350008D919C910E943FF1F7016083718382835C
:105360009383C8010E94FF38AA24A3940F5F1F4FA4
:10537000F4E0CF0ED11C24E0E20EF11C0430110544
:1053800009F0A0CFAA2019F00E94BA3837C0BB207C
:10539000A9F1C090D014D090D114E090D214F09024
:1053A000D3142091CD0E3091CE0E4091CF0E50915E
:1053B000D00EC701B6010E946BED0E9470F360939E
:1053C000870F7093880F8093890F90938A0FC7017E
:1053D000B6010E9483F22FB7F8946093EB0A7093A2
:1053E000EC0A8093ED0A9093EE0A2FBF1092770F8C
:1053F0001092780F1092790F10927A0F0E9499CF25
:105400000C945C342537310509F497C608F0CDC0FB
:105410002B34310509F429C508F070C02831310555
:1054200009F46BC2E8F52231310509F46FC6D8F4EE
:105430002230310508F4A3C12131310511F00C945B
:105440005C3460E085E793E00E94C59C5F988A9891
:105450009FB7F894809108018E7F809308019FBFC9
:1054600012980C945C342531310509F43EC240F4A5
:105470002431310511F00C945C34EDE8F3E0F3C114
:105480002631310509F434C22731310511F00C946D
:105490005C3440E061E0C8010E9448C50C945C3473
:1054A0002E31310509F47BC2B0F42A31310509F4FB
:1054B00031C208F427C22B31310509F436C22C3130
:1054C000310511F00C945C3440E060E0C8010E94AA
:1054D00048C50C945C342032310509F471C308F4DA
:1054E000B8C32A32310509F47DC42033310511F0E7
:1054F0000C945C340E94784C0C945C342936310551
:1055000009F4B4C540F52335310509F4FBC598F419
:105510002D34310509F4C8C408F4AAC42135310575
:1055200009F4EDC52235310511F00C945C3410926C
:1055300093040C945C342535310509F4EAC508F46C
:10554000E5C52C35310509F4E7C52836310509F4E0
:10555000BAC40C945C342E36310509F4F4C498F4C2
:105560002B36310509F4BDC508F49BC52C36310531
:1055700009F462C52D36310511F00C945C340E949B
:10558000BB4A0C945C342037310509F458C508F443
:10559000EAC42237310509F4C2C52337310511F0B9
:1055A0000C945C34E4EAF4E0BDC52E3241E03407EB
:1055B00009F4F4C608F066C02B3C310509F4BEC6F8
:1055C00068F52C38310509F43EC580F428373105DB
:1055D00009F43AC62937310509F43CC627373105A5
:1055E00011F00C945C34EFE5F5E0ACC52E3B3105D1
:1055F00009F454C530F42139310509F430C60C944E
:105600005C34283C310509F496C6293C310511F07B
:105610000C945C340E9427CF0C945C342C3D3105F3
:1056200009F4B3C698F42D3C310509F4A5C608F475
:10563000A0C62E3C310509F4A2C6233D310511F068
:105640000C945C340E94B2BE0C945C34223E310552
:1056500009F49EC648F42D3D310511F00C945C34DC
:105660000E948BBE0C945C342C3281E0380709F424
:1056700092C62D32314011F00C945C340E9462BD10
:105680000C945C34253FA1E03A0709F496C608F073
:1056900042C02239E1E03E0709F486C6F8F4233619
:1056A00041E0340711F40C94083448F42F323140AF
:1056B00011F00C945C340E942EB90C945C342039A7
:1056C00091E0390709F46DC62139314011F00C948D
:1056D0005C3481E00E9424370C945C34243AB1E0BD
:1056E0003B0709F464C648F42A39314011F00C94A0
:1056F0005C340E9406B90C945C342C3A41E03407C7
:1057000009F458C6243F314011F00C945C340E94D7
:1057100082790C945C34233583E0380709F4E2C7BE
:10572000A8F4273FA1E03A0709F44FC608F44AC697
:105730002939E2E03E0709F425C62A39324011F042
:105740000C945C340E9438BF0C945C34283743E0DE
:10575000340711F40C941F3430F42935334009F424
:1057600037C60C945C34203A93E0390709F468C2D8
:10577000273E334011F40C9424340C945C3480E5BF
:105780000E947737882361F00E94FE376B017C010D
:10579000BB24B394672B682B692B31F4B12C04C064
:1057A000B12CC12CD12C760183E50E947737882358
:1057B00099F00E9432386B017C01B1100FC0672B49
:1057C000682B692B59F4F8018081882339F061E056
:1057D000C8010E94DA9C07C0BB20A9F360E084E600
:1057E00093E00E94C59C81E080934C0B0E9464571B
:1057F0000E94583AC114D104E104F104E9F0809107
:10580000960E9091970EA091980EB091990EC80E99
:10581000D91EEA1EFB1E0E942398DC01CB018C19C5
:105820009D09AE09BF09B7FF1AC080914C0B8823B0
:10583000B1F00E94BA89EFCF80914C0B882319F008
:105840000E94BA89F9CF8091E70F60E0882319F0B0
:1058500085E593E002C085E493E00E94C59C109228
:105860004C0B0C945C3484918F010F5F1F4F882385
:1058700021F00E949D3AF801F6CF10926D1210921D
:105880006C1240E050E0BA0188E190E10E94547E41
:105890008BE1E8E1F0E1DE01159601900D928A9529
:1058A000E1F780911610909117109C838B838BEDFC
:1058B00093E09A83898340E050E0BE016F5F7F4FA1
:1058C00080E294E00E9413C3CE0101960E945E899B
:1058D000EEE7F3E084918F010F5F1F4F882309F4F7
:1058E000EBC70E949D3AF801F5CF0E94E5C9E4C7D5
:1058F0001092E70F1092E80FDFC70E94F5C20E94D6
:105900009FCBDAC781E08093880E80937F1410923A
:10591000E70FD2C78091E80F882309F4CDC783E54C
:105920000E9477378111CBC7C7C78091E80F8823C2
:1059300049F1EEE9F3E084918F010F5F1F4F882357
:1059400021F00E949D3AF801F6CF609163127091A8
:10595000641280916512909166124AE00E94CA3AE0
:105960008FE20E949D3A60915F1270916012809167
:105970006112909162124AE00E94CA3A8AE00E9443
:105980009D3A9AC7E0EBF3E084918F010F5F1F4FC0
:10599000882309F491C70E949D3AF801F5CF8091C0
:1059A000E80F882309F488C782EB91E10E94227EE8
:1059B00082EB91E10E9408A31092E60F1092E50F8E
:1059C000E0909504F09096048091E80F882309F404
:1059D00073C71092E70F8091B511882321F082EBF5
:1059E00091E10E9408A31D8218861C821B828BED08
:1059F00093E09A83898384E190E1909334108093BB
:105A00003310D7018C918F3209F066C06FE270E0DD
:105A1000C7010E9478F48C010F5F1F4FFE01319681
:105A20004F010115110509F45DC06FE270E0C80176
:105A30000E9478F46C01009709F455C00817190703
:105A400008F051C05C01A01AB10AA501B801CE014D
:105A500080960E94A1F4E0E2F0E0EC0FFD1FEA0D59
:105A6000FB1D10828E01005E1F4FD8018D918D01AC
:105A7000882319F00E949D3AF8CF8AE00E949D3A4F
:105A800060913310709134106115710511F06C5FE5
:105A90007F4F21E0AE01405E5F4FCE0105960E9430
:105AA0004CA7811111C0BE01605E7F4F87EE93E06D
:105AB0000E94A43A8EE20E949D3A8AE00E949D3A9A
:105AC000C4010E945E89F8C690923410809233100F
:105AD00086010F5F1F4FA5CF85E390E190933410AF
